:100000000C942A000C9447000C9447000C94470071
:100010000C9447000C9447000C9447000C94470044
:100020000C9447000C9447000C9447000C94470034
:100030000C9447000C9447000C9447000C94470024
:100040000C9447000C9447000C9447000C94470014
:100050000C94470011241FBECFE5D8E0DEBFCDBF12
:1000600010E0A0E6B0E0E6EFF4E002C005900D92EB
:10007000A237B107D9F720E0A2E7B0E001C01D9296
:10008000A537B207E1F70E94AF010C9479020C94F6
:100090000000AF92BF92CF92DF92EF92FF920F9348
:1000A0001F93CF93DF9300D000D0CDB7DEB71B8274
:1000B00002E610E00F2EF2E7EF2EF0E0FF2EF02D1B
:1000C0000F2EF5E7CF2EF0E0DF2EF02DBB24B394FA
:1000D000A12CD801F801319790818B2D3197208187
:1000E00021118A2D092E01C0880F0A94EAF78C830A
:1000F0008B2D01C0880F9A95EAF78A838C918983AA
:10010000CE0101960E94C801F70111927F010D5F97
:100110001F4FEC15FD05E9F60F900F900F900F9013
:10012000DF91CF911F910F91FF90EF90DF90CF90D3
:10013000BF90AF900895FF920F931F93CF93DF93DB
:1001400000D0CDB7DEB7082F10E0F801EE0FFF1F8B
:10015000E00FF11FE05AFF4F91818081F82E092EA8
:1001600001C0FF0C0A94EAF781E001C0880F9A955C
:10017000EAF78A8382818983CE0101960E945D021B
:10018000F801EE58FF4F9081913009F128F092303C
:1001900081F0933051F135C08F1106C082E0F80133
:1001A000EE58FF4F80832DC0F801EE58FF4F1082AC
:1001B00028C08F1106C081E0F801EE58FF4F808300
:1001C00020C083E0F801EE58FF4F80831AC08F11E2
:1001D00006C081E0F801EE58FF4F808312C083E033
:1001E000F801EE58FF4F80830CC08F1106C082E0EB
:1001F000F801EE58FF4F808304C0F801EE58FF4F1E
:100200001082F801EE58FF4F80810F900F90DF9120
:10021000CF911F910F91FF900895CF93DF9300D05E
:100220001F92CDB7DEB790E0FC01EE0FFF1FE80F85
:10023000F91FE759FF4F2281298321E030E0018037
:1002400002C0220F331F0A94E2F72A83662319F0B3
:10025000613081F01DC0FC01EE0FFF1F8E0F9F1F4C
:10026000FC01E759FF4F8081813011F41B8210C0DF
:100270002B830EC0FC01EE0FFF1F8E0F9F1FFC0192
:10028000E759FF4F8081813011F42B8301C01B821D
:10029000CE0101960E9427020F900F900F90DF91E0
:1002A000CF910895CF92DF92EF92FF921F93CF9359
:1002B000DF9300D000D0CDB7DEB71C828FEF8B83E9
:1002C0000F2EFBE6EF2EF0E0FF2EF02D10E0CC24F9
:1002D000C394D12CF7013197C601008002C0880F6A
:1002E000991F0A94E2F78A83F70180818983CE01FE
:1002F00001960E94C80160E0812F0E940D011F5FDE
:10030000F3E0EF0EF11C133029F70F900F900F90D0
:100310000F90DF91CF911F91FF90EF90DF90CF90E2
:100320000895CF93C0E08C2F0E949B00833021F072
:10033000CF5FC330C1F7CFEF8C2FCF910895CF930C
:10034000DF93D82FC0E06D2F61708C2F0E940D01BC
:10035000D695CF5FC330B9F7DF91CF9108950E9452
:1003600052010E944900C0E0D0E00E94910181301A
:1003700049F020F0823041F4CD2F06C0C73020F480
:10038000CF5F02C0C111C1508C2F0E949F01EDCFE1
:10039000FC0180818130E1F030F0823071F18330F6
:1003A00009F440C008952AB38181982F909529239C
:1003B00092819823822F892B8ABB2BB38181982F1E
:1003C0009095292393819823822F892B8BBB0895A5
:1003D00027B38181982F9095292392819823822F8A
:1003E000892B87BB28B38181982F909529239381EE
:1003F0009823822F892B88BB089524B38181982F5D
:100400009095292392819823822F892B84BB25B331
:100410008181982F9095292393819823822F892B6E
:1004200085BB089521B38181982F909529239281CE
:100430009823822F892B81BB22B38181982F90959D
:10044000292393819823822F892B82BB0895FC0155
:100450009081913089F028F09230C9F0933011F1F9
:1004600008952BB38181982F909529239281982309
:10047000822F892B8BBB089528B38181982F90956B
:10048000292392819823822F892B88BB089525B335
:100490008181982F9095292392819823822F892BEF
:1004A00085BB089522B38181982F9095292392814D
:1004B0009823822F892B82BB0895FC019081913073
:1004C00051F028F0923059F0933069F010C099B390
:1004D00081818923089596B381818923089593B3F7
:1004E00081818923089590B381818923089580E0D3
:0604F0000895F894FFCF0F
:1004F60001010000020000000101060101040201E1
:020506000003F0
:00000001FF
